{
  "address": "0xFBc2Fe638E1d6E2eFEEaade64B7C2334C7a8C84e",
  "abi": [
    {
      "inputs": [],
      "stateMutability": "nonpayable",
      "type": "constructor"
    },
    {
      "inputs": [
        {
          "internalType": "address",
          "name": "target",
          "type": "address"
        }
      ],
      "name": "AddressEmptyCode",
      "type": "error"
    },
    {
      "inputs": [],
      "name": "ERC721EnumerableForbiddenBatchMint",
      "type": "error"
    },
    {
      "inputs": [
        {
          "internalType": "address",
          "name": "sender",
          "type": "address"
        },
        {
          "internalType": "uint256",
          "name": "tokenId",
          "type": "uint256"
        },
        {
          "internalType": "address",
          "name": "owner",
          "type": "address"
        }
      ],
      "name": "ERC721IncorrectOwner",
      "type": "error"
    },
    {
      "inputs": [
        {
          "internalType": "address",
          "name": "operator",
          "type": "address"
        },
        {
          "internalType": "uint256",
          "name": "tokenId",
          "type": "uint256"
        }
      ],
      "name": "ERC721InsufficientApproval",
      "type": "error"
    },
    {
      "inputs": [
        {
          "internalType": "address",
          "name": "approver",
          "type": "address"
        }
      ],
      "name": "ERC721InvalidApprover",
      "type": "error"
    },
    {
      "inputs": [
        {
          "internalType": "address",
          "name": "operator",
          "type": "address"
        }
      ],
      "name": "ERC721InvalidOperator",
      "type": "error"
    },
    {
      "inputs": [
        {
          "internalType": "address",
          "name": "owner",
          "type": "address"
        }
      ],
      "name": "ERC721InvalidOwner",
      "type": "error"
    },
    {
      "inputs": [
        {
          "internalType": "address",
          "name": "receiver",
          "type": "address"
        }
      ],
      "name": "ERC721InvalidReceiver",
      "type": "error"
    },
    {
      "inputs": [
        {
          "internalType": "address",
          "name": "sender",
          "type": "address"
        }
      ],
      "name": "ERC721InvalidSender",
      "type": "error"
    },
    {
      "inputs": [
        {
          "internalType": "uint256",
          "name": "tokenId",
          "type": "uint256"
        }
      ],
      "name": "ERC721NonexistentToken",
      "type": "error"
    },
    {
      "inputs": [
        {
          "internalType": "address",
          "name": "owner",
          "type": "address"
        },
        {
          "internalType": "uint256",
          "name": "index",
          "type": "uint256"
        }
      ],
      "name": "ERC721OutOfBoundsIndex",
      "type": "error"
    },
    {
      "inputs": [],
      "name": "FailedInnerCall",
      "type": "error"
    },
    {
      "inputs": [],
      "name": "NFTLimitReached",
      "type": "error"
    },
    {
      "inputs": [
        {
          "internalType": "address",
          "name": "owner",
          "type": "address"
        }
      ],
      "name": "OwnableInvalidOwner",
      "type": "error"
    },
    {
      "inputs": [
        {
          "internalType": "address",
          "name": "account",
          "type": "address"
        }
      ],
      "name": "OwnableUnauthorizedAccount",
      "type": "error"
    },
    {
      "anonymous": false,
      "inputs": [
        {
          "indexed": true,
          "internalType": "address",
          "name": "owner",
          "type": "address"
        },
        {
          "indexed": true,
          "internalType": "address",
          "name": "approved",
          "type": "address"
        },
        {
          "indexed": true,
          "internalType": "uint256",
          "name": "tokenId",
          "type": "uint256"
        }
      ],
      "name": "Approval",
      "type": "event"
    },
    {
      "anonymous": false,
      "inputs": [
        {
          "indexed": true,
          "internalType": "address",
          "name": "owner",
          "type": "address"
        },
        {
          "indexed": true,
          "internalType": "address",
          "name": "operator",
          "type": "address"
        },
        {
          "indexed": false,
          "internalType": "bool",
          "name": "approved",
          "type": "bool"
        }
      ],
      "name": "ApprovalForAll",
      "type": "event"
    },
    {
      "anonymous": false,
      "inputs": [
        {
          "indexed": true,
          "internalType": "address",
          "name": "account",
          "type": "address"
        },
        {
          "indexed": false,
          "internalType": "uint256",
          "name": "tokenId",
          "type": "uint256"
        }
      ],
      "name": "NFTClaimed",
      "type": "event"
    },
    {
      "anonymous": false,
      "inputs": [
        {
          "indexed": true,
          "internalType": "address",
          "name": "previousOwner",
          "type": "address"
        },
        {
          "indexed": true,
          "internalType": "address",
          "name": "newOwner",
          "type": "address"
        }
      ],
      "name": "OwnershipTransferStarted",
      "type": "event"
    },
    {
      "anonymous": false,
      "inputs": [
        {
          "indexed": true,
          "internalType": "address",
          "name": "previousOwner",
          "type": "address"
        },
        {
          "indexed": true,
          "internalType": "address",
          "name": "newOwner",
          "type": "address"
        }
      ],
      "name": "OwnershipTransferred",
      "type": "event"
    },
    {
      "anonymous": false,
      "inputs": [
        {
          "indexed": true,
          "internalType": "address",
          "name": "from",
          "type": "address"
        },
        {
          "indexed": true,
          "internalType": "address",
          "name": "to",
          "type": "address"
        },
        {
          "indexed": true,
          "internalType": "uint256",
          "name": "tokenId",
          "type": "uint256"
        }
      ],
      "name": "Transfer",
      "type": "event"
    },
    {
      "inputs": [],
      "name": "MAX_SUPPLY",
      "outputs": [
        {
          "internalType": "uint32",
          "name": "",
          "type": "uint32"
        }
      ],
      "stateMutability": "view",
      "type": "function"
    },
    {
      "inputs": [],
      "name": "NFT_PRICE",
      "outputs": [
        {
          "internalType": "uint256",
          "name": "",
          "type": "uint256"
        }
      ],
      "stateMutability": "view",
      "type": "function"
    },
    {
      "inputs": [],
      "name": "acceptOwnership",
      "outputs": [],
      "stateMutability": "nonpayable",
      "type": "function"
    },
    {
      "inputs": [
        {
          "internalType": "address",
          "name": "to",
          "type": "address"
        },
        {
          "internalType": "uint256",
          "name": "tokenId",
          "type": "uint256"
        }
      ],
      "name": "approve",
      "outputs": [],
      "stateMutability": "nonpayable",
      "type": "function"
    },
    {
      "inputs": [
        {
          "internalType": "address",
          "name": "owner",
          "type": "address"
        }
      ],
      "name": "balanceOf",
      "outputs": [
        {
          "internalType": "uint256",
          "name": "",
          "type": "uint256"
        }
      ],
      "stateMutability": "view",
      "type": "function"
    },
    {
      "inputs": [
        {
          "internalType": "address",
          "name": "addr",
          "type": "address"
        }
      ],
      "name": "balances",
      "outputs": [
        {
          "internalType": "uint256[]",
          "name": "",
          "type": "uint256[]"
        }
      ],
      "stateMutability": "view",
      "type": "function"
    },
    {
      "inputs": [],
      "name": "currentNFTId",
      "outputs": [
        {
          "internalType": "uint32",
          "name": "",
          "type": "uint32"
        }
      ],
      "stateMutability": "view",
      "type": "function"
    },
    {
      "inputs": [
        {
          "internalType": "uint256",
          "name": "tokenId",
          "type": "uint256"
        }
      ],
      "name": "getApproved",
      "outputs": [
        {
          "internalType": "address",
          "name": "",
          "type": "address"
        }
      ],
      "stateMutability": "view",
      "type": "function"
    },
    {
      "inputs": [
        {
          "internalType": "address",
          "name": "owner",
          "type": "address"
        },
        {
          "internalType": "address",
          "name": "operator",
          "type": "address"
        }
      ],
      "name": "isApprovedForAll",
      "outputs": [
        {
          "internalType": "bool",
          "name": "",
          "type": "bool"
        }
      ],
      "stateMutability": "view",
      "type": "function"
    },
    {
      "inputs": [
        {
          "internalType": "bytes32[]",
          "name": "merkleProof",
          "type": "bytes32[]"
        }
      ],
      "name": "mint",
      "outputs": [],
      "stateMutability": "payable",
      "type": "function"
    },
    {
      "inputs": [
        {
          "internalType": "bytes[]",
          "name": "data",
          "type": "bytes[]"
        }
      ],
      "name": "multicall",
      "outputs": [
        {
          "internalType": "bytes[]",
          "name": "results",
          "type": "bytes[]"
        }
      ],
      "stateMutability": "nonpayable",
      "type": "function"
    },
    {
      "inputs": [],
      "name": "name",
      "outputs": [
        {
          "internalType": "string",
          "name": "",
          "type": "string"
        }
      ],
      "stateMutability": "view",
      "type": "function"
    },
    {
      "inputs": [],
      "name": "owner",
      "outputs": [
        {
          "internalType": "address",
          "name": "",
          "type": "address"
        }
      ],
      "stateMutability": "view",
      "type": "function"
    },
    {
      "inputs": [
        {
          "internalType": "uint256",
          "name": "tokenId",
          "type": "uint256"
        }
      ],
      "name": "ownerOf",
      "outputs": [
        {
          "internalType": "address",
          "name": "",
          "type": "address"
        }
      ],
      "stateMutability": "view",
      "type": "function"
    },
    {
      "inputs": [],
      "name": "pendingOwner",
      "outputs": [
        {
          "internalType": "address",
          "name": "",
          "type": "address"
        }
      ],
      "stateMutability": "view",
      "type": "function"
    },
    {
      "inputs": [],
      "name": "renounceOwnership",
      "outputs": [],
      "stateMutability": "nonpayable",
      "type": "function"
    },
    {
      "inputs": [
        {
          "internalType": "address",
          "name": "from",
          "type": "address"
        },
        {
          "internalType": "address",
          "name": "to",
          "type": "address"
        },
        {
          "internalType": "uint256",
          "name": "tokenId",
          "type": "uint256"
        }
      ],
      "name": "safeTransferFrom",
      "outputs": [],
      "stateMutability": "nonpayable",
      "type": "function"
    },
    {
      "inputs": [
        {
          "internalType": "address",
          "name": "from",
          "type": "address"
        },
        {
          "internalType": "address",
          "name": "to",
          "type": "address"
        },
        {
          "internalType": "uint256",
          "name": "tokenId",
          "type": "uint256"
        },
        {
          "internalType": "bytes",
          "name": "data",
          "type": "bytes"
        }
      ],
      "name": "safeTransferFrom",
      "outputs": [],
      "stateMutability": "nonpayable",
      "type": "function"
    },
    {
      "inputs": [
        {
          "internalType": "address",
          "name": "operator",
          "type": "address"
        },
        {
          "internalType": "bool",
          "name": "approved",
          "type": "bool"
        }
      ],
      "name": "setApprovalForAll",
      "outputs": [],
      "stateMutability": "nonpayable",
      "type": "function"
    },
    {
      "inputs": [
        {
          "internalType": "bytes4",
          "name": "interfaceId",
          "type": "bytes4"
        }
      ],
      "name": "supportsInterface",
      "outputs": [
        {
          "internalType": "bool",
          "name": "",
          "type": "bool"
        }
      ],
      "stateMutability": "view",
      "type": "function"
    },
    {
      "inputs": [],
      "name": "symbol",
      "outputs": [
        {
          "internalType": "string",
          "name": "",
          "type": "string"
        }
      ],
      "stateMutability": "view",
      "type": "function"
    },
    {
      "inputs": [
        {
          "internalType": "uint256",
          "name": "index",
          "type": "uint256"
        }
      ],
      "name": "tokenByIndex",
      "outputs": [
        {
          "internalType": "uint256",
          "name": "",
          "type": "uint256"
        }
      ],
      "stateMutability": "view",
      "type": "function"
    },
    {
      "inputs": [
        {
          "internalType": "address",
          "name": "owner",
          "type": "address"
        },
        {
          "internalType": "uint256",
          "name": "index",
          "type": "uint256"
        }
      ],
      "name": "tokenOfOwnerByIndex",
      "outputs": [
        {
          "internalType": "uint256",
          "name": "",
          "type": "uint256"
        }
      ],
      "stateMutability": "view",
      "type": "function"
    },
    {
      "inputs": [
        {
          "internalType": "uint256",
          "name": "tokenId",
          "type": "uint256"
        }
      ],
      "name": "tokenURI",
      "outputs": [
        {
          "internalType": "string",
          "name": "",
          "type": "string"
        }
      ],
      "stateMutability": "view",
      "type": "function"
    },
    {
      "inputs": [],
      "name": "totalSupply",
      "outputs": [
        {
          "internalType": "uint256",
          "name": "",
          "type": "uint256"
        }
      ],
      "stateMutability": "view",
      "type": "function"
    },
    {
      "inputs": [
        {
          "internalType": "address",
          "name": "from",
          "type": "address"
        },
        {
          "internalType": "address",
          "name": "to",
          "type": "address"
        },
        {
          "internalType": "uint256",
          "name": "tokenId",
          "type": "uint256"
        }
      ],
      "name": "transferFrom",
      "outputs": [],
      "stateMutability": "nonpayable",
      "type": "function"
    },
    {
      "inputs": [
        {
          "internalType": "address",
          "name": "newOwner",
          "type": "address"
        }
      ],
      "name": "transferOwnership",
      "outputs": [],
      "stateMutability": "nonpayable",
      "type": "function"
    },
    {
      "inputs": [
        {
          "internalType": "bytes32",
          "name": "_whitelistMerkleRoot",
          "type": "bytes32"
        }
      ],
      "name": "updateMerkleRoot",
      "outputs": [],
      "stateMutability": "nonpayable",
      "type": "function"
    },
    {
      "inputs": [],
      "name": "whitelistMerkleRoot",
      "outputs": [
        {
          "internalType": "bytes32",
          "name": "",
          "type": "bytes32"
        }
      ],
      "stateMutability": "view",
      "type": "function"
    },
    {
      "inputs": [],
      "name": "withdraw",
      "outputs": [],
      "stateMutability": "nonpayable",
      "type": "function"
    }
  ],
  "transactionHash": "0x08c90be973e60618f8f2d93d7fcf11d91374dbe0e059a95000c6553a593a688b",
  "args": [],
  "numDeployments": 3,
  "solcInputHash": "fac2f4f7beaf4f6e5c28c7ed14e6d110",
  "bytecode": "0x60806040527f11b5a69df5dc64d2de077c95d593899b649e40bd5fd83b08b914b2d4cc880172600c553480156200003557600080fd5b50336040518060400160405280600b81526020016a15185b1a5cdb585b93919560aa1b8152506040518060400160405280600481526020016354414c4960e01b8152508160009081620000899190620001f1565b506001620000988282620001f1565b5050506001600160a01b038116620000ca57604051631e4fbdf760e01b81526000600482015260240160405180910390fd5b620000d581620000dc565b50620002bd565b600b80546001600160a01b0319169055620000f781620000fa565b50565b600a80546001600160a01b038381166001600160a01b0319831681179093556040519116919082907f8be0079c531659141344cd1fd0a4f28419497f9722a3daafe3b4186f6b6457e090600090a35050565b634e487b7160e01b600052604160045260246000fd5b600181811c908216806200017757607f821691505b6020821081036200019857634e487b7160e01b600052602260045260246000fd5b50919050565b601f821115620001ec57600081815260208120601f850160051c81016020861015620001c75750805b601f850160051c820191505b81811015620001e857828155600101620001d3565b5050505b505050565b81516001600160401b038111156200020d576200020d6200014c565b62000225816200021e845462000162565b846200019e565b602080601f8311600181146200025d5760008415620002445750858301515b600019600386901b1c1916600185901b178555620001e8565b600085815260208120601f198616915b828110156200028e578886015182559484019460019091019084016200026d565b5085821015620002ad5787850151600019600388901b60f8161c191681555b5050505050600190811b01905550565b611fbd80620002cd6000396000f3fe6080604052600436106101cd5760003560e01c806370a08231116100f7578063aa98e0c611610095578063c87b56dd11610064578063c87b56dd1461051a578063e30c39781461053a578063e985e9c514610558578063f2fde38b1461057857600080fd5b8063aa98e0c6146104a4578063ac9650d8146104ba578063b77a147b146104e7578063b88d4fde146104fa57600080fd5b80638668bded116100d15780638668bded146104345780638da5cb5b1461045157806395d89b411461046f578063a22cb4651461048457600080fd5b806370a08231146103ea578063715018a61461040a57806379ba50971461041f57600080fd5b80632f745c591161016f5780634783f0ef1161013e5780634783f0ef1461036e5780634f6ccce71461038e5780636352211e146103ae578063676dd563146103ce57600080fd5b80632f745c59146102ef57806332cb6b0c1461030f5780633ccfd60b1461033957806342842e0e1461034e57600080fd5b8063095ea7b3116101ab578063095ea7b31461026157806318160ddd1461028357806323b872dd146102a257806327e235e3146102c257600080fd5b806301ffc9a7146101d257806306fdde0314610207578063081812fc14610229575b600080fd5b3480156101de57600080fd5b506101f26101ed3660046119a8565b610598565b60405190151581526020015b60405180910390f35b34801561021357600080fd5b5061021c6105c3565b6040516101fe9190611a15565b34801561023557600080fd5b50610249610244366004611a28565b610655565b6040516001600160a01b0390911681526020016101fe565b34801561026d57600080fd5b5061028161027c366004611a5d565b61067e565b005b34801561028f57600080fd5b506008545b6040519081526020016101fe565b3480156102ae57600080fd5b506102816102bd366004611a87565b61068d565b3480156102ce57600080fd5b506102e26102dd366004611ac3565b61071d565b6040516101fe9190611ade565b3480156102fb57600080fd5b5061029461030a366004611a5d565b6107bf565b34801561031b57600080fd5b50610324600a81565b60405163ffffffff90911681526020016101fe565b34801561034557600080fd5b50610281610824565b34801561035a57600080fd5b50610281610369366004611a87565b6108d5565b34801561037a57600080fd5b50610281610389366004611a28565b6108f5565b34801561039a57600080fd5b506102946103a9366004611a28565b610902565b3480156103ba57600080fd5b506102496103c9366004611a28565b61095b565b3480156103da57600080fd5b5061029467016345785d8a000081565b3480156103f657600080fd5b50610294610405366004611ac3565b610966565b34801561041657600080fd5b506102816109ae565b34801561042b57600080fd5b506102816109c2565b34801561044057600080fd5b50600d546103249063ffffffff1681565b34801561045d57600080fd5b50600a546001600160a01b0316610249565b34801561047b57600080fd5b5061021c610a03565b34801561049057600080fd5b5061028161049f366004611b22565b610a12565b3480156104b057600080fd5b50610294600c5481565b3480156104c657600080fd5b506104da6104d5366004611baa565b610a1d565b6040516101fe9190611bec565b6102816104f5366004611baa565b610b10565b34801561050657600080fd5b50610281610515366004611c64565b610ce1565b34801561052657600080fd5b5061021c610535366004611a28565b610cf8565b34801561054657600080fd5b50600b546001600160a01b0316610249565b34801561056457600080fd5b506101f2610573366004611d40565b610d60565b34801561058457600080fd5b50610281610593366004611ac3565b610d8e565b60006001600160e01b0319821663780e9d6360e01b14806105bd57506105bd82610dff565b92915050565b6060600080546105d290611d73565b80601f01602080910402602001604051908101604052809291908181526020018280546105fe90611d73565b801561064b5780601f106106205761010080835404028352916020019161064b565b820191906000526020600020905b81548152906001019060200180831161062e57829003601f168201915b5050505050905090565b600061066082610e4f565b506000828152600460205260409020546001600160a01b03166105bd565b610689828233610e88565b5050565b6001600160a01b0382166106bc57604051633250574960e11b8152600060048201526024015b60405180910390fd5b60006106c9838333610e95565b9050836001600160a01b0316816001600160a01b031614610717576040516364283d7b60e01b81526001600160a01b03808616600483015260248201849052821660448201526064016106b3565b50505050565b6060600061072a83610966565b905060008167ffffffffffffffff81111561074757610747611c4e565b604051908082528060200260200182016040528015610770578160200160208202803683370190505b50905060005b828110156107b75761078885826107bf565b82828151811061079a5761079a611dad565b6020908102919091010152806107af81611dd9565b915050610776565b509392505050565b60006107ca83610966565b82106107fb5760405163295f44f760e21b81526001600160a01b0384166004820152602481018390526044016106b3565b506001600160a01b03919091166000908152600660209081526040808320938352929052205490565b61082c610f6a565b6000610840600a546001600160a01b031690565b6001600160a01b03164760405160006040518083038185875af1925050503d806000811461088a576040519150601f19603f3d011682016040523d82523d6000602084013e61088f565b606091505b50509050806108d25760405162461bcd60e51b815260206004820152600f60248201526e151c985b9cd9995c8819985a5b1959608a1b60448201526064016106b3565b50565b6108f083838360405180602001604052806000815250610ce1565b505050565b6108fd610f6a565b600c55565b600061090d60085490565b82106109365760405163295f44f760e21b815260006004820152602481018390526044016106b3565b6008828154811061094957610949611dad565b90600052602060002001549050919050565b60006105bd82610e4f565b60006001600160a01b038216610992576040516322718ad960e21b8152600060048201526024016106b3565b506001600160a01b031660009081526003602052604090205490565b6109b6610f6a565b6109c06000610f97565b565b600b5433906001600160a01b031681146109fa5760405163118cdaa760e01b81526001600160a01b03821660048201526024016106b3565b6108d281610f97565b6060600180546105d290611d73565b610689338383610fb0565b6040805160008152602081019091526060908267ffffffffffffffff811115610a4857610a48611c4e565b604051908082528060200260200182016040528015610a7b57816020015b6060815260200190600190039081610a665790505b50915060005b83811015610b0857610ad830868684818110610a9f57610a9f611dad565b9050602002810190610ab19190611e05565b85604051602001610ac493929190611e4c565b60405160208183030381529060405261104f565b838281518110610aea57610aea611dad565b60200260200101819052508080610b0090611dd9565b915050610a81565b505092915050565b6040516bffffffffffffffffffffffff193360601b16602082015282908290600090603401604051602081830303815290604052805190602001209050610b8e83838080602002602001604051908101604052809392919081815260200183836020028082843760009201919091525050600c5491508490506110c5565b610bca5760405162461bcd60e51b815260206004820152600d60248201526c24b73b30b634b210383937b7b360991b60448201526064016106b3565b67016345785d8a0000341015610c175760405162461bcd60e51b8152602060048201526012602482015271496e73756666696369656e742066756e647360701b60448201526064016106b3565b600d54600a63ffffffff90911610610c4257604051637b7e617960e01b815260040160405180910390fd5b600d805460009163ffffffff9091169082610c5c83611e73565b91906101000a81548163ffffffff021916908363ffffffff1602179055509050336001600160a01b03167fb792983f4be9cd6a6722f6cf3c136d8cf44f77c5cf7cb263f75f36b04806a01b82604051610cc1919063ffffffff91909116815260200190565b60405180910390a2610cd9338263ffffffff166110db565b505050505050565b610cec84848461068d565b61071784848484611140565b6060610d0382610e4f565b506000610d0e611269565b90506000815111610d2e5760405180602001604052806000815250610d59565b80610d3884611289565b604051602001610d49929190611e96565b6040516020818303038152906040525b9392505050565b6001600160a01b03918216600090815260056020908152604080832093909416825291909152205460ff1690565b610d96610f6a565b600b80546001600160a01b0383166001600160a01b03199091168117909155610dc7600a546001600160a01b031690565b6001600160a01b03167f38d16b8cac22d99fc7c124b9cd0de2d3fa1faef420bfe791d8c362d765e2270060405160405180910390a350565b60006001600160e01b031982166380ac58cd60e01b1480610e3057506001600160e01b03198216635b5e139f60e01b145b806105bd57506301ffc9a760e01b6001600160e01b03198316146105bd565b6000818152600260205260408120546001600160a01b0316806105bd57604051637e27328960e01b8152600481018490526024016106b3565b6108f0838383600161131c565b600080610ea3858585611422565b90506001600160a01b038116610f0057610efb84600880546000838152600960205260408120829055600182018355919091527ff3f7a9fe364faab93b216da50a3214154f22a0a2b415b23a84c8169e8b636ee30155565b610f23565b846001600160a01b0316816001600160a01b031614610f2357610f23818561151b565b6001600160a01b038516610f3f57610f3a846115ac565b610f62565b846001600160a01b0316816001600160a01b031614610f6257610f62858561165b565b949350505050565b600a546001600160a01b031633146109c05760405163118cdaa760e01b81523360048201526024016106b3565b600b80546001600160a01b03191690556108d2816116ab565b6001600160a01b038216610fe257604051630b61174360e31b81526001600160a01b03831660048201526024016106b3565b6001600160a01b03838116600081815260056020908152604080832094871680845294825291829020805460ff191686151590811790915591519182527f17307eab39ab6107e8899845ad3d59bd9653f200f220920489ca2b5937696c31910160405180910390a3505050565b6060600080846001600160a01b03168460405161106c9190611ec5565b600060405180830381855af49150503d80600081146110a7576040519150601f19603f3d011682016040523d82523d6000602084013e6110ac565b606091505b50915091506110bc8583836116fd565b95945050505050565b6000826110d28584611759565b14949350505050565b6001600160a01b03821661110557604051633250574960e11b8152600060048201526024016106b3565b600061111383836000610e95565b90506001600160a01b038116156108f0576040516339e3563760e11b8152600060048201526024016106b3565b6001600160a01b0383163b1561071757604051630a85bd0160e11b81526001600160a01b0384169063150b7a0290611182903390889087908790600401611ee1565b6020604051808303816000875af19250505080156111bd575060408051601f3d908101601f191682019092526111ba91810190611f1e565b60015b611226573d8080156111eb576040519150601f19603f3d011682016040523d82523d6000602084013e6111f0565b606091505b50805160000361121e57604051633250574960e11b81526001600160a01b03851660048201526024016106b3565b805181602001fd5b6001600160e01b03198116630a85bd0160e11b1461126257604051633250574960e11b81526001600160a01b03851660048201526024016106b3565b5050505050565b6060604051806060016040528060368152602001611f5260369139905090565b606060006112968361179e565b600101905060008167ffffffffffffffff8111156112b6576112b6611c4e565b6040519080825280601f01601f1916602001820160405280156112e0576020820181803683370190505b5090508181016020015b600019016f181899199a1a9b1b9c1cb0b131b232b360811b600a86061a8153600a85049450846112ea57509392505050565b808061133057506001600160a01b03821615155b156113f257600061134084610e4f565b90506001600160a01b0383161580159061136c5750826001600160a01b0316816001600160a01b031614155b801561137f575061137d8184610d60565b155b156113a85760405163a9fbf51f60e01b81526001600160a01b03841660048201526024016106b3565b81156113f05783856001600160a01b0316826001600160a01b03167f8c5be1e5ebec7d5bd14f71427d1e84f3dd0314c0f7b2291e5b200ac8c7c3b92560405160405180910390a45b505b5050600090815260046020526040902080546001600160a01b0319166001600160a01b0392909216919091179055565b6000828152600260205260408120546001600160a01b039081169083161561144f5761144f818486611876565b6001600160a01b0381161561148d5761146c60008560008061131c565b6001600160a01b038116600090815260036020526040902080546000190190555b6001600160a01b038516156114bc576001600160a01b0385166000908152600360205260409020805460010190555b60008481526002602052604080822080546001600160a01b0319166001600160a01b0389811691821790925591518793918516917fddf252ad1be2c89b69c2b068fc378daa952ba7f163c4a11628f55a4df523b3ef91a4949350505050565b600061152683610966565b600083815260076020526040902054909150808214611579576001600160a01b03841660009081526006602090815260408083208584528252808320548484528184208190558352600790915290208190555b5060009182526007602090815260408084208490556001600160a01b039094168352600681528383209183525290812055565b6008546000906115be90600190611df2565b600083815260096020526040812054600880549394509092849081106115e6576115e6611dad565b90600052602060002001549050806008838154811061160757611607611dad565b600091825260208083209091019290925582815260099091526040808220849055858252812055600880548061163f5761163f611f3b565b6001900381819060005260206000200160009055905550505050565b6000600161166884610966565b6116729190611df2565b6001600160a01b039093166000908152600660209081526040808320868452825280832085905593825260079052919091209190915550565b600a80546001600160a01b038381166001600160a01b0319831681179093556040519116919082907f8be0079c531659141344cd1fd0a4f28419497f9722a3daafe3b4186f6b6457e090600090a35050565b6060826117125761170d826118da565b610d59565b815115801561172957506001600160a01b0384163b155b1561175257604051639996b31560e01b81526001600160a01b03851660048201526024016106b3565b5080610d59565b600081815b84518110156107b75761178a8286838151811061177d5761177d611dad565b6020026020010151611903565b91508061179681611dd9565b91505061175e565b60008072184f03e93ff9f4daa797ed6e38ed64bf6a1f0160401b83106117dd5772184f03e93ff9f4daa797ed6e38ed64bf6a1f0160401b830492506040015b6d04ee2d6d415b85acef81000000008310611809576d04ee2d6d415b85acef8100000000830492506020015b662386f26fc10000831061182757662386f26fc10000830492506010015b6305f5e100831061183f576305f5e100830492506008015b612710831061185357612710830492506004015b60648310611865576064830492506002015b600a83106105bd5760010192915050565b61188183838361192f565b6108f0576001600160a01b0383166118af57604051637e27328960e01b8152600481018290526024016106b3565b60405163177e802f60e01b81526001600160a01b0383166004820152602481018290526044016106b3565b8051156118ea5780518082602001fd5b604051630a12f52160e11b815260040160405180910390fd5b600081831061191f576000828152602084905260409020610d59565b5060009182526020526040902090565b60006001600160a01b03831615801590610f625750826001600160a01b0316846001600160a01b0316148061196957506119698484610d60565b80610f625750506000908152600460205260409020546001600160a01b03908116911614919050565b6001600160e01b0319811681146108d257600080fd5b6000602082840312156119ba57600080fd5b8135610d5981611992565b60005b838110156119e05781810151838201526020016119c8565b50506000910152565b60008151808452611a018160208601602086016119c5565b601f01601f19169290920160200192915050565b602081526000610d5960208301846119e9565b600060208284031215611a3a57600080fd5b5035919050565b80356001600160a01b0381168114611a5857600080fd5b919050565b60008060408385031215611a7057600080fd5b611a7983611a41565b946020939093013593505050565b600080600060608486031215611a9c57600080fd5b611aa584611a41565b9250611ab360208501611a41565b9150604084013590509250925092565b600060208284031215611ad557600080fd5b610d5982611a41565b6020808252825182820181905260009190848201906040850190845b81811015611b1657835183529284019291840191600101611afa565b50909695505050505050565b60008060408385031215611b3557600080fd5b611b3e83611a41565b915060208301358015158114611b5357600080fd5b809150509250929050565b60008083601f840112611b7057600080fd5b50813567ffffffffffffffff811115611b8857600080fd5b6020830191508360208260051b8501011115611ba357600080fd5b9250929050565b60008060208385031215611bbd57600080fd5b823567ffffffffffffffff811115611bd457600080fd5b611be085828601611b5e565b90969095509350505050565b6000602080830181845280855180835260408601915060408160051b870101925083870160005b82811015611c4157603f19888603018452611c2f8583516119e9565b94509285019290850190600101611c13565b5092979650505050505050565b634e487b7160e01b600052604160045260246000fd5b60008060008060808587031215611c7a57600080fd5b611c8385611a41565b9350611c9160208601611a41565b925060408501359150606085013567ffffffffffffffff80821115611cb557600080fd5b818701915087601f830112611cc957600080fd5b813581811115611cdb57611cdb611c4e565b604051601f8201601f19908116603f01168101908382118183101715611d0357611d03611c4e565b816040528281528a6020848701011115611d1c57600080fd5b82602086016020830137600060208483010152809550505050505092959194509250565b60008060408385031215611d5357600080fd5b611d5c83611a41565b9150611d6a60208401611a41565b90509250929050565b600181811c90821680611d8757607f821691505b602082108103611da757634e487b7160e01b600052602260045260246000fd5b50919050565b634e487b7160e01b600052603260045260246000fd5b634e487b7160e01b600052601160045260246000fd5b600060018201611deb57611deb611dc3565b5060010190565b818103818111156105bd576105bd611dc3565b6000808335601e19843603018112611e1c57600080fd5b83018035915067ffffffffffffffff821115611e3757600080fd5b602001915036819003821315611ba357600080fd5b828482376000838201600081528351611e698183602088016119c5565b0195945050505050565b600063ffffffff808316818103611e8c57611e8c611dc3565b6001019392505050565b60008351611ea88184602088016119c5565b835190830190611ebc8183602088016119c5565b01949350505050565b60008251611ed78184602087016119c5565b9190910192915050565b6001600160a01b0385811682528416602082015260408101839052608060608201819052600090611f14908301846119e9565b9695505050505050565b600060208284031215611f3057600080fd5b8151610d5981611992565b634e487b7160e01b600052603160045260246000fdfe697066733a2f2f516d5a5634664d6f6b4b767853646664724756566a343353413779364d71355145507452505533735741706b474d2fa2646970667358221220f880b06748c37a7e65a6d50bb36d0416875761f4f71aa24b01adcad126c7965064736f6c63430008140033",
  "devdoc": {
    "author": "Matt Burton It implements functionality for claiming NFTs, updating the whitelist merkle root, and withdrawing the contract's balance.",
    "details": "This contract represents a non-fungible token (NFT) contract that allows users to claim NFTs by providing a valid merkle proof. The contract inherits from ERC721, Ownable2Step contracts.",
    "errors": {
      "AddressEmptyCode(address)": [
        {
          "details": "There's no code at `target` (it is not a contract)."
        }
      ],
      "ERC721EnumerableForbiddenBatchMint()": [
        {
          "details": "Batch mint is not allowed."
        }
      ],
      "ERC721IncorrectOwner(address,uint256,address)": [
        {
          "details": "Indicates an error related to the ownership over a particular token. Used in transfers.",
          "params": {
            "owner": "Address of the current owner of a token.",
            "sender": "Address whose tokens are being transferred.",
            "tokenId": "Identifier number of a token."
          }
        }
      ],
      "ERC721InsufficientApproval(address,uint256)": [
        {
          "details": "Indicates a failure with the `operator`s approval. Used in transfers.",
          "params": {
            "operator": "Address that may be allowed to operate on tokens without being their owner.",
            "tokenId": "Identifier number of a token."
          }
        }
      ],
      "ERC721InvalidApprover(address)": [
        {
          "details": "Indicates a failure with the `approver` of a token to be approved. Used in approvals.",
          "params": {
            "approver": "Address initiating an approval operation."
          }
        }
      ],
      "ERC721InvalidOperator(address)": [
        {
          "details": "Indicates a failure with the `operator` to be approved. Used in approvals.",
          "params": {
            "operator": "Address that may be allowed to operate on tokens without being their owner."
          }
        }
      ],
      "ERC721InvalidOwner(address)": [
        {
          "details": "Indicates that an address can't be an owner. For example, `address(0)` is a forbidden owner in EIP-20. Used in balance queries.",
          "params": {
            "owner": "Address of the current owner of a token."
          }
        }
      ],
      "ERC721InvalidReceiver(address)": [
        {
          "details": "Indicates a failure with the token `receiver`. Used in transfers.",
          "params": {
            "receiver": "Address to which tokens are being transferred."
          }
        }
      ],
      "ERC721InvalidSender(address)": [
        {
          "details": "Indicates a failure with the token `sender`. Used in transfers.",
          "params": {
            "sender": "Address whose tokens are being transferred."
          }
        }
      ],
      "ERC721NonexistentToken(uint256)": [
        {
          "details": "Indicates a `tokenId` whose `owner` is the zero address.",
          "params": {
            "tokenId": "Identifier number of a token."
          }
        }
      ],
      "ERC721OutOfBoundsIndex(address,uint256)": [
        {
          "details": "An `owner`'s token query was out of bounds for `index`. NOTE: The owner being `address(0)` indicates a global out of bounds index."
        }
      ],
      "FailedInnerCall()": [
        {
          "details": "A call to an address target failed. The target may have reverted."
        }
      ],
      "OwnableInvalidOwner(address)": [
        {
          "details": "The owner is not a valid owner account. (eg. `address(0)`)"
        }
      ],
      "OwnableUnauthorizedAccount(address)": [
        {
          "details": "The caller account is not authorized to perform an operation."
        }
      ]
    },
    "events": {
      "Approval(address,address,uint256)": {
        "details": "Emitted when `owner` enables `approved` to manage the `tokenId` token."
      },
      "ApprovalForAll(address,address,bool)": {
        "details": "Emitted when `owner` enables or disables (`approved`) `operator` to manage all of its assets."
      },
      "Transfer(address,address,uint256)": {
        "details": "Emitted when `tokenId` token is transferred from `from` to `to`."
      }
    },
    "kind": "dev",
    "methods": {
      "acceptOwnership()": {
        "details": "The new owner accepts the ownership transfer."
      },
      "approve(address,uint256)": {
        "details": "See {IERC721-approve}."
      },
      "balanceOf(address)": {
        "details": "See {IERC721-balanceOf}."
      },
      "balances(address)": {
        "details": "Returns an array of token IDs owned by a specific address.",
        "returns": {
          "_0": "An array of token IDs owned by the specified address."
        }
      },
      "constructor": {
        "details": "Constructor function. Sets the name and symbol of the NFT contract and sets the contract owner."
      },
      "getApproved(uint256)": {
        "details": "See {IERC721-getApproved}."
      },
      "isApprovedForAll(address,address)": {
        "details": "See {IERC721-isApprovedForAll}."
      },
      "mint(bytes32[])": {
        "details": "Allows a user to claim an NFT by providing a valid merkle proof.",
        "params": {
          "merkleProof": "The merkle proof for verifying the user's eligibility to claim the NFT."
        }
      },
      "multicall(bytes[])": {
        "custom:oz-upgrades-unsafe-allow-reachable": "delegatecall",
        "details": "Receives and executes a batch of function calls on this contract."
      },
      "name()": {
        "details": "See {IERC721Metadata-name}."
      },
      "owner()": {
        "details": "Returns the address of the current owner."
      },
      "ownerOf(uint256)": {
        "details": "See {IERC721-ownerOf}."
      },
      "pendingOwner()": {
        "details": "Returns the address of the pending owner."
      },
      "renounceOwnership()": {
        "details": "Leaves the contract without owner. It will not be possible to call `onlyOwner` functions. Can only be called by the current owner. NOTE: Renouncing ownership will leave the contract without an owner, thereby disabling any functionality that is only available to the owner."
      },
      "safeTransferFrom(address,address,uint256)": {
        "details": "See {IERC721-safeTransferFrom}."
      },
      "safeTransferFrom(address,address,uint256,bytes)": {
        "details": "See {IERC721-safeTransferFrom}."
      },
      "setApprovalForAll(address,bool)": {
        "details": "See {IERC721-setApprovalForAll}."
      },
      "supportsInterface(bytes4)": {
        "details": "See {IERC165-supportsInterface}."
      },
      "symbol()": {
        "details": "See {IERC721Metadata-symbol}."
      },
      "tokenByIndex(uint256)": {
        "details": "See {IERC721Enumerable-tokenByIndex}."
      },
      "tokenOfOwnerByIndex(address,uint256)": {
        "details": "See {IERC721Enumerable-tokenOfOwnerByIndex}."
      },
      "tokenURI(uint256)": {
        "details": "See {IERC721Metadata-tokenURI}."
      },
      "totalSupply()": {
        "details": "See {IERC721Enumerable-totalSupply}."
      },
      "transferFrom(address,address,uint256)": {
        "details": "See {IERC721-transferFrom}."
      },
      "transferOwnership(address)": {
        "details": "Starts the ownership transfer of the contract to a new account. Replaces the pending transfer if there is one. Can only be called by the current owner."
      },
      "updateMerkleRoot(bytes32)": {
        "details": "Updates the whitelist merkle root.",
        "params": {
          "_whitelistMerkleRoot": "The new whitelist merkle root. Only the contract owner can call this function."
        }
      },
      "withdraw()": {
        "details": "Allows the owner of the contract to withdraw the contract's balance. Emits a `Transfer` event upon successful withdrawal. Requirements: - The caller must be the owner of the contract. - The withdrawal must be successful."
      }
    },
    "title": "TalismanNFT",
    "version": 1
  },
  "userdoc": {
    "kind": "user",
    "methods": {},
    "version": 1
  },
  "storageLayout": {
    "storage": [
      {
        "astId": 403,
        "contract": "contracts/TalismanNFT.sol:TalismanNFT",
        "label": "_name",
        "offset": 0,
        "slot": "0",
        "type": "t_string_storage"
      },
      {
        "astId": 405,
        "contract": "contracts/TalismanNFT.sol:TalismanNFT",
        "label": "_symbol",
        "offset": 0,
        "slot": "1",
        "type": "t_string_storage"
      },
      {
        "astId": 409,
        "contract": "contracts/TalismanNFT.sol:TalismanNFT",
        "label": "_owners",
        "offset": 0,
        "slot": "2",
        "type": "t_mapping(t_uint256,t_address)"
      },
      {
        "astId": 413,
        "contract": "contracts/TalismanNFT.sol:TalismanNFT",
        "label": "_balances",
        "offset": 0,
        "slot": "3",
        "type": "t_mapping(t_address,t_uint256)"
      },
      {
        "astId": 417,
        "contract": "contracts/TalismanNFT.sol:TalismanNFT",
        "label": "_tokenApprovals",
        "offset": 0,
        "slot": "4",
        "type": "t_mapping(t_uint256,t_address)"
      },
      {
        "astId": 423,
        "contract": "contracts/TalismanNFT.sol:TalismanNFT",
        "label": "_operatorApprovals",
        "offset": 0,
        "slot": "5",
        "type": "t_mapping(t_address,t_mapping(t_address,t_bool))"
      },
      {
        "astId": 1533,
        "contract": "contracts/TalismanNFT.sol:TalismanNFT",
        "label": "_ownedTokens",
        "offset": 0,
        "slot": "6",
        "type": "t_mapping(t_address,t_mapping(t_uint256,t_uint256))"
      },
      {
        "astId": 1537,
        "contract": "contracts/TalismanNFT.sol:TalismanNFT",
        "label": "_ownedTokensIndex",
        "offset": 0,
        "slot": "7",
        "type": "t_mapping(t_uint256,t_uint256)"
      },
      {
        "astId": 1540,
        "contract": "contracts/TalismanNFT.sol:TalismanNFT",
        "label": "_allTokens",
        "offset": 0,
        "slot": "8",
        "type": "t_array(t_uint256)dyn_storage"
      },
      {
        "astId": 1544,
        "contract": "contracts/TalismanNFT.sol:TalismanNFT",
        "label": "_allTokensIndex",
        "offset": 0,
        "slot": "9",
        "type": "t_mapping(t_uint256,t_uint256)"
      },
      {
        "astId": 8,
        "contract": "contracts/TalismanNFT.sol:TalismanNFT",
        "label": "_owner",
        "offset": 0,
        "slot": "10",
        "type": "t_address"
      },
      {
        "astId": 156,
        "contract": "contracts/TalismanNFT.sol:TalismanNFT",
        "label": "_pendingOwner",
        "offset": 0,
        "slot": "11",
        "type": "t_address"
      },
      {
        "astId": 4351,
        "contract": "contracts/TalismanNFT.sol:TalismanNFT",
        "label": "whitelistMerkleRoot",
        "offset": 0,
        "slot": "12",
        "type": "t_bytes32"
      },
      {
        "astId": 4353,
        "contract": "contracts/TalismanNFT.sol:TalismanNFT",
        "label": "currentNFTId",
        "offset": 0,
        "slot": "13",
        "type": "t_uint32"
      }
    ],
    "types": {
      "t_address": {
        "encoding": "inplace",
        "label": "address",
        "numberOfBytes": "20"
      },
      "t_array(t_uint256)dyn_storage": {
        "base": "t_uint256",
        "encoding": "dynamic_array",
        "label": "uint256[]",
        "numberOfBytes": "32"
      },
      "t_bool": {
        "encoding": "inplace",
        "label": "bool",
        "numberOfBytes": "1"
      },
      "t_bytes32": {
        "encoding": "inplace",
        "label": "bytes32",
        "numberOfBytes": "32"
      },
      "t_mapping(t_address,t_bool)": {
        "encoding": "mapping",
        "key": "t_address",
        "label": "mapping(address => bool)",
        "numberOfBytes": "32",
        "value": "t_bool"
      },
      "t_mapping(t_address,t_mapping(t_address,t_bool))": {
        "encoding": "mapping",
        "key": "t_address",
        "label": "mapping(address => mapping(address => bool))",
        "numberOfBytes": "32",
        "value": "t_mapping(t_address,t_bool)"
      },
      "t_mapping(t_address,t_mapping(t_uint256,t_uint256))": {
        "encoding": "mapping",
        "key": "t_address",
        "label": "mapping(address => mapping(uint256 => uint256))",
        "numberOfBytes": "32",
        "value": "t_mapping(t_uint256,t_uint256)"
      },
      "t_mapping(t_address,t_uint256)": {
        "encoding": "mapping",
        "key": "t_address",
        "label": "mapping(address => uint256)",
        "numberOfBytes": "32",
        "value": "t_uint256"
      },
      "t_mapping(t_uint256,t_address)": {
        "encoding": "mapping",
        "key": "t_uint256",
        "label": "mapping(uint256 => address)",
        "numberOfBytes": "32",
        "value": "t_address"
      },
      "t_mapping(t_uint256,t_uint256)": {
        "encoding": "mapping",
        "key": "t_uint256",
        "label": "mapping(uint256 => uint256)",
        "numberOfBytes": "32",
        "value": "t_uint256"
      },
      "t_string_storage": {
        "encoding": "bytes",
        "label": "string",
        "numberOfBytes": "32"
      },
      "t_uint256": {
        "encoding": "inplace",
        "label": "uint256",
        "numberOfBytes": "32"
      },
      "t_uint32": {
        "encoding": "inplace",
        "label": "uint32",
        "numberOfBytes": "4"
      }
    }
  }
}